{
  "contractName": "XviralShares",
  "abi": [
    {
      "inputs": [],
      "stateMutability": "nonpayable",
      "type": "constructor"
    },
    {
      "anonymous": false,
      "inputs": [
        {
          "indexed": true,
          "internalType": "uint256",
          "name": "saleId",
          "type": "uint256"
        },
        {
          "indexed": true,
          "internalType": "address",
          "name": "contributor",
          "type": "address"
        },
        {
          "indexed": false,
          "internalType": "uint256",
          "name": "amount",
          "type": "uint256"
        },
        {
          "indexed": false,
          "internalType": "uint256",
          "name": "shares",
          "type": "uint256"
        },
        {
          "indexed": false,
          "internalType": "uint256",
          "name": "subscriptions",
          "type": "uint256"
        }
      ],
      "name": "ContributionAdded",
      "type": "event"
    },
    {
      "anonymous": false,
      "inputs": [
        {
          "indexed": false,
          "internalType": "uint8",
          "name": "previousFee",
          "type": "uint8"
        },
        {
          "indexed": true,
          "internalType": "uint8",
          "name": "newFee",
          "type": "uint8"
        }
      ],
      "name": "FeesChanged",
      "type": "event"
    },
    {
      "anonymous": false,
      "inputs": [
        {
          "indexed": false,
          "internalType": "uint256",
          "name": "previousDuration",
          "type": "uint256"
        },
        {
          "indexed": false,
          "internalType": "uint256",
          "name": "newDuration",
          "type": "uint256"
        }
      ],
      "name": "MaxValueChanged",
      "type": "event"
    },
    {
      "anonymous": false,
      "inputs": [
        {
          "indexed": true,
          "internalType": "address",
          "name": "previousOwner",
          "type": "address"
        },
        {
          "indexed": true,
          "internalType": "address",
          "name": "newOwner",
          "type": "address"
        }
      ],
      "name": "OwnershipTransferred",
      "type": "event"
    },
    {
      "anonymous": false,
      "inputs": [
        {
          "indexed": true,
          "internalType": "uint256",
          "name": "saleId",
          "type": "uint256"
        }
      ],
      "name": "SaleCanceled",
      "type": "event"
    },
    {
      "anonymous": false,
      "inputs": [
        {
          "indexed": true,
          "internalType": "uint256",
          "name": "saleId",
          "type": "uint256"
        },
        {
          "indexed": false,
          "internalType": "uint256",
          "name": "totalSharesRaised",
          "type": "uint256"
        }
      ],
      "name": "SaleClosed",
      "type": "event"
    },
    {
      "anonymous": false,
      "inputs": [
        {
          "indexed": true,
          "internalType": "uint256",
          "name": "saleId",
          "type": "uint256"
        },
        {
          "indexed": true,
          "internalType": "address",
          "name": "creator",
          "type": "address"
        },
        {
          "indexed": false,
          "internalType": "uint256",
          "name": "targetAmount",
          "type": "uint256"
        },
        {
          "indexed": false,
          "internalType": "uint256",
          "name": "startTime",
          "type": "uint256"
        },
        {
          "indexed": false,
          "internalType": "uint256",
          "name": "endTime",
          "type": "uint256"
        },
        {
          "indexed": false,
          "internalType": "uint256",
          "name": "sharePrice",
          "type": "uint256"
        },
        {
          "indexed": false,
          "internalType": "uint256",
          "name": "subscriptionPrice",
          "type": "uint256"
        },
        {
          "indexed": false,
          "internalType": "enum XviralShares.SaleType",
          "name": "saleType",
          "type": "uint8"
        }
      ],
      "name": "SaleCreated",
      "type": "event"
    },
    {
      "anonymous": false,
      "inputs": [
        {
          "indexed": true,
          "internalType": "uint256",
          "name": "saleId",
          "type": "uint256"
        },
        {
          "indexed": true,
          "internalType": "address",
          "name": "contributor",
          "type": "address"
        },
        {
          "indexed": false,
          "internalType": "uint256",
          "name": "amount",
          "type": "uint256"
        }
      ],
      "name": "Withdrawal",
      "type": "event"
    },
    {
      "inputs": [
        {
          "internalType": "address",
          "name": "",
          "type": "address"
        }
      ],
      "name": "balances",
      "outputs": [
        {
          "internalType": "uint256",
          "name": "",
          "type": "uint256"
        }
      ],
      "stateMutability": "view",
      "type": "function",
      "constant": true
    },
    {
      "inputs": [],
      "name": "maxContribution",
      "outputs": [
        {
          "internalType": "uint256",
          "name": "",
          "type": "uint256"
        }
      ],
      "stateMutability": "view",
      "type": "function",
      "constant": true
    },
    {
      "inputs": [],
      "name": "maxDuration",
      "outputs": [
        {
          "internalType": "uint256",
          "name": "",
          "type": "uint256"
        }
      ],
      "stateMutability": "view",
      "type": "function",
      "constant": true
    },
    {
      "inputs": [],
      "name": "owner",
      "outputs": [
        {
          "internalType": "address",
          "name": "",
          "type": "address"
        }
      ],
      "stateMutability": "view",
      "type": "function",
      "constant": true
    },
    {
      "inputs": [],
      "name": "ownerFeePercentage",
      "outputs": [
        {
          "internalType": "uint8",
          "name": "",
          "type": "uint8"
        }
      ],
      "stateMutability": "view",
      "type": "function",
      "constant": true
    },
    {
      "inputs": [
        {
          "internalType": "uint256",
          "name": "",
          "type": "uint256"
        },
        {
          "internalType": "address",
          "name": "",
          "type": "address"
        }
      ],
      "name": "saleContributions",
      "outputs": [
        {
          "internalType": "address",
          "name": "contributor",
          "type": "address"
        },
        {
          "internalType": "uint256",
          "name": "amount",
          "type": "uint256"
        },
        {
          "internalType": "uint256",
          "name": "shares",
          "type": "uint256"
        },
        {
          "internalType": "uint256",
          "name": "subscriptions",
          "type": "uint256"
        }
      ],
      "stateMutability": "view",
      "type": "function",
      "constant": true
    },
    {
      "inputs": [],
      "name": "saleCounter",
      "outputs": [
        {
          "internalType": "uint256",
          "name": "",
          "type": "uint256"
        }
      ],
      "stateMutability": "view",
      "type": "function",
      "constant": true
    },
    {
      "inputs": [
        {
          "internalType": "uint256",
          "name": "",
          "type": "uint256"
        }
      ],
      "name": "sales",
      "outputs": [
        {
          "internalType": "address",
          "name": "creator",
          "type": "address"
        },
        {
          "internalType": "uint256",
          "name": "targetAmount",
          "type": "uint256"
        },
        {
          "internalType": "uint256",
          "name": "totalSharesRaised",
          "type": "uint256"
        },
        {
          "internalType": "uint256",
          "name": "totalSubscriptionRaised",
          "type": "uint256"
        },
        {
          "internalType": "uint256",
          "name": "startTime",
          "type": "uint256"
        },
        {
          "internalType": "uint256",
          "name": "endTime",
          "type": "uint256"
        },
        {
          "internalType": "uint256",
          "name": "sharePrice",
          "type": "uint256"
        },
        {
          "internalType": "uint256",
          "name": "subscriptionPrice",
          "type": "uint256"
        },
        {
          "internalType": "enum XviralShares.SaleType",
          "name": "saleType",
          "type": "uint8"
        }
      ],
      "stateMutability": "view",
      "type": "function",
      "constant": true
    },
    {
      "inputs": [],
      "name": "totalFeesRaised",
      "outputs": [
        {
          "internalType": "uint256",
          "name": "",
          "type": "uint256"
        }
      ],
      "stateMutability": "view",
      "type": "function",
      "constant": true
    },
    {
      "inputs": [],
      "name": "withdrawalFee",
      "outputs": [
        {
          "internalType": "uint8",
          "name": "",
          "type": "uint8"
        }
      ],
      "stateMutability": "view",
      "type": "function",
      "constant": true
    },
    {
      "inputs": [
        {
          "internalType": "uint256",
          "name": "_targetAmount",
          "type": "uint256"
        },
        {
          "internalType": "uint256",
          "name": "_duration",
          "type": "uint256"
        },
        {
          "internalType": "uint256",
          "name": "_startTime",
          "type": "uint256"
        },
        {
          "internalType": "uint256",
          "name": "_sharePrice",
          "type": "uint256"
        },
        {
          "internalType": "uint256",
          "name": "_subscriptionPrice",
          "type": "uint256"
        },
        {
          "internalType": "enum XviralShares.SaleType",
          "name": "_saleType",
          "type": "uint8"
        }
      ],
      "name": "createSale",
      "outputs": [],
      "stateMutability": "nonpayable",
      "type": "function"
    },
    {
      "inputs": [
        {
          "internalType": "uint256",
          "name": "_saleId",
          "type": "uint256"
        },
        {
          "internalType": "uint16",
          "name": "_shareValue",
          "type": "uint16"
        }
      ],
      "name": "contribute",
      "outputs": [],
      "stateMutability": "payable",
      "type": "function",
      "payable": true
    },
    {
      "inputs": [
        {
          "internalType": "uint256",
          "name": "_saleId",
          "type": "uint256"
        },
        {
          "internalType": "uint16",
          "name": "_shareValue",
          "type": "uint16"
        }
      ],
      "name": "purchase",
      "outputs": [],
      "stateMutability": "payable",
      "type": "function",
      "payable": true
    },
    {
      "inputs": [
        {
          "internalType": "uint256",
          "name": "_saleId",
          "type": "uint256"
        },
        {
          "internalType": "uint256",
          "name": "_numShares",
          "type": "uint256"
        }
      ],
      "name": "withdrawShares",
      "outputs": [],
      "stateMutability": "nonpayable",
      "type": "function"
    },
    {
      "inputs": [],
      "name": "getCreatorBalance",
      "outputs": [
        {
          "internalType": "uint256",
          "name": "",
          "type": "uint256"
        }
      ],
      "stateMutability": "view",
      "type": "function",
      "constant": true
    },
    {
      "inputs": [
        {
          "internalType": "address",
          "name": "_newOwner",
          "type": "address"
        }
      ],
      "name": "transferOwnership",
      "outputs": [],
      "stateMutability": "nonpayable",
      "type": "function"
    },
    {
      "inputs": [
        {
          "internalType": "uint8",
          "name": "value",
          "type": "uint8"
        }
      ],
      "name": "changeWithdrawalFee",
      "outputs": [],
      "stateMutability": "nonpayable",
      "type": "function"
    },
    {
      "inputs": [
        {
          "internalType": "uint8",
          "name": "value",
          "type": "uint8"
        }
      ],
      "name": "changeOwnerFee",
      "outputs": [],
      "stateMutability": "nonpayable",
      "type": "function"
    },
    {
      "inputs": [
        {
          "internalType": "uint256",
          "name": "duration",
          "type": "uint256"
        }
      ],
      "name": "changeMaxDuration",
      "outputs": [],
      "stateMutability": "nonpayable",
      "type": "function"
    },
    {
      "inputs": [
        {
          "internalType": "uint256",
          "name": "contribution",
          "type": "uint256"
        }
      ],
      "name": "changeMaxContribution",
      "outputs": [],
      "stateMutability": "nonpayable",
      "type": "function"
    },
    {
      "inputs": [
        {
          "internalType": "uint256",
          "name": "_saleId",
          "type": "uint256"
        }
      ],
      "name": "getSaleDetails",
      "outputs": [
        {
          "internalType": "address",
          "name": "creator",
          "type": "address"
        },
        {
          "internalType": "uint256",
          "name": "targetAmount",
          "type": "uint256"
        },
        {
          "internalType": "uint256",
          "name": "startTime",
          "type": "uint256"
        },
        {
          "internalType": "uint256",
          "name": "endTime",
          "type": "uint256"
        },
        {
          "internalType": "uint256",
          "name": "sharePrice",
          "type": "uint256"
        },
        {
          "internalType": "uint256",
          "name": "subscriptionPrice",
          "type": "uint256"
        },
        {
          "internalType": "uint256",
          "name": "totalSharesRaised",
          "type": "uint256"
        },
        {
          "internalType": "uint256",
          "name": "totalSubscriptionRaised",
          "type": "uint256"
        },
        {
          "internalType": "enum XviralShares.SaleType",
          "name": "saleType",
          "type": "uint8"
        }
      ],
      "stateMutability": "view",
      "type": "function",
      "constant": true
    },
    {
      "inputs": [
        {
          "internalType": "uint256",
          "name": "_saleId",
          "type": "uint256"
        },
        {
          "internalType": "address",
          "name": "_user",
          "type": "address"
        }
      ],
      "name": "getContributionsByUser",
      "outputs": [
        {
          "components": [
            {
              "internalType": "address",
              "name": "contributor",
              "type": "address"
            },
            {
              "internalType": "uint256",
              "name": "amount",
              "type": "uint256"
            },
            {
              "internalType": "uint256",
              "name": "shares",
              "type": "uint256"
            },
            {
              "internalType": "uint256",
              "name": "subscriptions",
              "type": "uint256"
            }
          ],
          "internalType": "struct XviralShares.Contribution[]",
          "name": "userContributions",
          "type": "tuple[]"
        }
      ],
      "stateMutability": "view",
      "type": "function",
      "constant": true
    },
    {
      "inputs": [],
      "name": "getAllSales",
      "outputs": [
        {
          "components": [
            {
              "internalType": "address",
              "name": "creator",
              "type": "address"
            },
            {
              "internalType": "uint256",
              "name": "targetAmount",
              "type": "uint256"
            },
            {
              "internalType": "uint256",
              "name": "totalSharesRaised",
              "type": "uint256"
            },
            {
              "internalType": "uint256",
              "name": "totalSubscriptionRaised",
              "type": "uint256"
            },
            {
              "internalType": "uint256",
              "name": "startTime",
              "type": "uint256"
            },
            {
              "internalType": "uint256",
              "name": "endTime",
              "type": "uint256"
            },
            {
              "internalType": "uint256",
              "name": "sharePrice",
              "type": "uint256"
            },
            {
              "internalType": "uint256",
              "name": "subscriptionPrice",
              "type": "uint256"
            },
            {
              "internalType": "enum XviralShares.SaleType",
              "name": "saleType",
              "type": "uint8"
            }
          ],
          "internalType": "struct XviralShares.Sale[]",
          "name": "",
          "type": "tuple[]"
        }
      ],
      "stateMutability": "view",
      "type": "function",
      "constant": true
    }
  ],
  "bytecode": "0x60806040526005600260006101000a81548160ff021916908360ff160217905550600a600260016101000a81548160ff021916908360ff1602179055506815af1d78b58c40000060035562093a8060045534801561005c57600080fd5b50336000806101000a81548173ffffffffffffffffffffffffffffffffffffffff021916908373ffffffffffffffffffffffffffffffffffffffff16021790555061379e806100ac6000396000f3fe6080604052600436106101405760003560e01c80636db5c8fd116100b65780638da5cb5b1161006f5780638da5cb5b1461045a578063a432548514610485578063b217cdab146104b0578063b5f522f7146104cc578063db075b5a14610511578063f2fde38b1461053a57610140565b80636db5c8fd146103425780637365b3d61461036d5780638a07a0c0146103965780638bc7e8c4146103bf5780638c746d8b146103ea5780638d3d65761461042f57610140565b8063326b3ec211610108578063326b3ec214610241578063333969171461026a5780633958fe911461029557806355cc34b3146102b1578063630a868b146102dc57806368894a161461031957610140565b80630387b0a2146101455780631cb398c2146101705780632582c5101461019b57806327e235e3146101c45780632a2484a014610201575b600080fd5b34801561015157600080fd5b5061015a610563565b6040516101679190612f10565b60405180910390f35b34801561017c57600080fd5b50610185610569565b6040516101929190612fec565b60405180910390f35b3480156101a757600080fd5b506101c260048036038101906101bd919061265f565b61057c565b005b3480156101d057600080fd5b506101eb60048036038101906101e69190612595565b610637565b6040516101f89190612f10565b60405180910390f35b34801561020d57600080fd5b50610228600480360381019061022391906125e7565b61064f565b6040516102389493929190612bfa565b60405180910390f35b34801561024d57600080fd5b5061026860048036038101906102639190612724565b6106ac565b005b34801561027657600080fd5b5061027f610771565b60405161028c9190612cee565b60405180910390f35b6102af60048036038101906102aa9190612623565b6109b0565b005b3480156102bd57600080fd5b506102c6610b59565b6040516102d39190612f10565b60405180910390f35b3480156102e857600080fd5b5061030360048036038101906102fe91906125e7565b610b5f565b6040516103109190612ccc565b60405180910390f35b34801561032557600080fd5b50610340600480360381019061033b91906125be565b610e1a565b005b34801561034e57600080fd5b50610357610ebe565b6040516103649190612f10565b60405180910390f35b34801561037957600080fd5b50610394600480360381019061038f91906125be565b610ec4565b005b3480156103a257600080fd5b506103bd60048036038101906103b89190612724565b610f68565b005b3480156103cb57600080fd5b506103d461102d565b6040516103e19190612fec565b60405180910390f35b3480156103f657600080fd5b50610411600480360381019061040c91906125be565b611040565b60405161042699989796959493929190612c3f565b60405180910390f35b34801561043b57600080fd5b506104446110de565b6040516104519190612f10565b60405180910390f35b34801561046657600080fd5b5061046f6110e4565b60405161047c9190612bdf565b60405180910390f35b34801561049157600080fd5b5061049a611108565b6040516104a79190612f10565b60405180910390f35b6104ca60048036038101906104c59190612623565b61114f565b005b3480156104d857600080fd5b506104f360048036038101906104ee91906125be565b611256565b60405161050899989796959493929190612c3f565b60405180910390f35b34801561051d57600080fd5b506105386004803603810190610533919061269b565b6112d1565b005b34801561054657600080fd5b50610561600480360381019061055c9190612595565b6113e2565b005b60085481565b600260009054906101000a900460ff1681565b60006005600084815260200190815260200160002060003373ffffffffffffffffffffffffffffffffffffffff1673ffffffffffffffffffffffffffffffffffffffff1681526020019081526020016000209050600081600201541180156105e8575080600201548211155b610627576040517f08c379a000000000000000000000000000000000000000000000000000000000815260040161061e90612ef0565b60405180910390fd5b61063283838361159d565b505050565b60076020528060005260406000206000915090505481565b6005602052816000526040600020602052806000526040600020600091509150508060000160009054906101000a900473ffffffffffffffffffffffffffffffffffffffff16908060010154908060020154908060030154905084565b60008054906101000a900473ffffffffffffffffffffffffffffffffffffffff1673ffffffffffffffffffffffffffffffffffffffff163373ffffffffffffffffffffffffffffffffffffffff161461073a576040517f08c379a000000000000000000000000000000000000000000000000000000000815260040161073190612d30565b60405180910390fd5b61075381600260019054906101000a900460ff16611642565b80600260016101000a81548160ff021916908360ff16021790555050565b6060600060085467ffffffffffffffff8111156107b7577f4e487b7100000000000000000000000000000000000000000000000000000000600052604160045260246000fd5b6040519080825280602002602001820160405280156107f057816020015b6107dd612401565b8152602001906001900390816107d55790505b5090506000600190505b60085481116109a85760066000828152602001908152602001600020604051806101200160405290816000820160009054906101000a900473ffffffffffffffffffffffffffffffffffffffff1673ffffffffffffffffffffffffffffffffffffffff1673ffffffffffffffffffffffffffffffffffffffff168152602001600182015481526020016002820154815260200160038201548152602001600482015481526020016005820154815260200160068201548152602001600782015481526020016008820160009054906101000a900460ff166002811115610909577f4e487b7100000000000000000000000000000000000000000000000000000000600052602160045260246000fd5b6002811115610941577f4e487b7100000000000000000000000000000000000000000000000000000000600052602160045260246000fd5b815250508260018361095391906131a2565b8151811061098a577f4e487b7100000000000000000000000000000000000000000000000000000000600052603260045260246000fd5b602002602001018190525080806109a090613252565b9150506107fa565b508091505090565b81600660008281526020019081526020016000206004015442101580156109ed575060066000828152602001908152602001600020600501544211155b610a2c576040517f08c379a0000000000000000000000000000000000000000000000000000000008152600401610a2390612db0565b60405180910390fd5b826006600082815260200190815260200160002060050154421115610a86576040517f08c379a0000000000000000000000000000000000000000000000000000000008152600401610a7d90612d10565b60405180910390fd5b600060066000868152602001908152602001600020905060003411610ae0576040517f08c379a0000000000000000000000000000000000000000000000000000000008152600401610ad790612df0565b60405180910390fd5b80600101543482600301548360020154610afa919061308a565b610b04919061308a565b10610b44576040517f08c379a0000000000000000000000000000000000000000000000000000000008152600401610b3b90612d90565b60405180910390fd5b610b52858561ffff1661175b565b5050505050565b60015481565b6060600080600190505b6008548111610bf05760006005600087815260200190815260200160002060008673ffffffffffffffffffffffffffffffffffffffff1673ffffffffffffffffffffffffffffffffffffffff168152602001908152602001600020600101541115610bdd578180610bd990613252565b9250505b8080610be890613252565b915050610b69565b508067ffffffffffffffff811115610c31577f4e487b7100000000000000000000000000000000000000000000000000000000600052604160045260246000fd5b604051908082528060200260200182016040528015610c6a57816020015b610c5761249b565b815260200190600190039081610c4f5790505b509150600090506000600190505b6008548111610e125760006005600087815260200190815260200160002060008673ffffffffffffffffffffffffffffffffffffffff1673ffffffffffffffffffffffffffffffffffffffff168152602001908152602001600020600101541115610dff576005600086815260200190815260200160002060008573ffffffffffffffffffffffffffffffffffffffff1673ffffffffffffffffffffffffffffffffffffffff1681526020019081526020016000206040518060800160405290816000820160009054906101000a900473ffffffffffffffffffffffffffffffffffffffff1673ffffffffffffffffffffffffffffffffffffffff1673ffffffffffffffffffffffffffffffffffffffff1681526020016001820154815260200160028201548152602001600382015481525050838381518110610de5577f4e487b7100000000000000000000000000000000000000000000000000000000600052603260045260246000fd5b60200260200101819052508180610dfb90613252565b9250505b8080610e0a90613252565b915050610c78565b505092915050565b60008054906101000a900473ffffffffffffffffffffffffffffffffffffffff1673ffffffffffffffffffffffffffffffffffffffff163373ffffffffffffffffffffffffffffffffffffffff1614610ea8576040517f08c379a0000000000000000000000000000000000000000000000000000000008152600401610e9f90612d30565b60405180910390fd5b610eb48160035461191a565b8060038190555050565b60045481565b60008054906101000a900473ffffffffffffffffffffffffffffffffffffffff1673ffffffffffffffffffffffffffffffffffffffff163373ffffffffffffffffffffffffffffffffffffffff1614610f52576040517f08c379a0000000000000000000000000000000000000000000000000000000008152600401610f4990612d30565b60405180910390fd5b610f5e8160045461191a565b8060048190555050565b60008054906101000a900473ffffffffffffffffffffffffffffffffffffffff1673ffffffffffffffffffffffffffffffffffffffff163373ffffffffffffffffffffffffffffffffffffffff1614610ff6576040517f08c379a0000000000000000000000000000000000000000000000000000000008152600401610fed90612d30565b60405180910390fd5b61100f81600260009054906101000a900460ff16611642565b80600260006101000a81548160ff021916908360ff16021790555050565b600260019054906101000a900460ff1681565b600080600080600080600080600080600660008c815260200190815260200160002090508060000160009054906101000a900473ffffffffffffffffffffffffffffffffffffffff1681600101548260040154836005015484600601548560070154866002015487600301548860080160009054906101000a900460ff16995099509950995099509950995099509950509193959799909294969850565b60035481565b60008054906101000a900473ffffffffffffffffffffffffffffffffffffffff1681565b6000600760003373ffffffffffffffffffffffffffffffffffffffff1673ffffffffffffffffffffffffffffffffffffffff16815260200190815260200160002054905090565b6000600660008481526020019081526020016000209050600034116111a9576040517f08c379a00000000000000000000000000000000000000000000000000000000081526004016111a090612dd0565b60405180910390fd5b806004015442111580156111c1575080600501544210155b611200576040517f08c379a00000000000000000000000000000000000000000000000000000000081526004016111f790612eb0565b60405180910390fd5b8060050154421015611247576040517f08c379a000000000000000000000000000000000000000000000000000000000815260040161123e90612e70565b60405180910390fd5b6112518383611a2b565b505050565b60066020528060005260406000206000915090508060000160009054906101000a900473ffffffffffffffffffffffffffffffffffffffff16908060010154908060020154908060030154908060040154908060050154908060060154908060070154908060080160009054906101000a900460ff16905089565b6112dd86868585611b98565b600085856112eb919061308a565b9050600454856112fb919061308a565b81111561133d576040517f08c379a000000000000000000000000000000000000000000000000000000000815260040161133490612d70565b60405180910390fd5b6008600081548092919061135090613252565b91905055506000600660006008548152602001908152602001600020905061137d81898885898989611cb9565b3373ffffffffffffffffffffffffffffffffffffffff166008547f21a39f5eb857294cbe030830ebd4e2d7a73e14a4e21acc7035646fe5804d12248a89868a8a8a6040516113d096959493929190612f8b565b60405180910390a35050505050505050565b60008054906101000a900473ffffffffffffffffffffffffffffffffffffffff1673ffffffffffffffffffffffffffffffffffffffff163373ffffffffffffffffffffffffffffffffffffffff1614611470576040517f08c379a000000000000000000000000000000000000000000000000000000000815260040161146790612d30565b60405180910390fd5b600073ffffffffffffffffffffffffffffffffffffffff168173ffffffffffffffffffffffffffffffffffffffff1614156114e0576040517f08c379a00000000000000000000000000000000000000000000000000000000081526004016114d790612e90565b60405180910390fd5b8073ffffffffffffffffffffffffffffffffffffffff1660008054906101000a900473ffffffffffffffffffffffffffffffffffffffff1673ffffffffffffffffffffffffffffffffffffffff167f8be0079c531659141344cd1fd0a4f28419497f9722a3daafe3b4186f6b6457e060405160405180910390a3806000806101000a81548173ffffffffffffffffffffffffffffffffffffffff021916908373ffffffffffffffffffffffffffffffffffffffff16021790555050565b60006006600085815260200190815260200160002090506115bc6124d9565b60008260060154856115ce9190613148565b90506115dc86828685611d8e565b6115e7838584611f7b565b3373ffffffffffffffffffffffffffffffffffffffff16867f37e8063b72a944a76de602f32b82fd8c2a1c6f99564c727ffaf913c7762cd4208460c001516040516116329190612f10565b60405180910390a3505050505050565b60008054906101000a900473ffffffffffffffffffffffffffffffffffffffff1673ffffffffffffffffffffffffffffffffffffffff163373ffffffffffffffffffffffffffffffffffffffff16146116d0576040517f08c379a00000000000000000000000000000000000000000000000000000000081526004016116c790612d30565b60405180910390fd5b8060ff168260ff161415611719576040517f08c379a000000000000000000000000000000000000000000000000000000000815260040161171090612e30565b60405180910390fd5b8160ff167fbf7933cc34f5b9538a4977948daffb30a6f616f87bf223dc7096fd640afd52dc8260405161174c9190612fec565b60405180910390a28190505050565b600060066000848152602001908152602001600020905061177a6124d9565b600061178534612034565b9050803461179391906131a2565b82610100018181525050808260a00181815250508260060154846117b79190613148565b8260000181815250506117cb848484612073565b60006005600087815260200190815260200160002060003373ffffffffffffffffffffffffffffffffffffffff1673ffffffffffffffffffffffffffffffffffffffff1681526020019081526020016000209050806005600088815260200190815260200160002060003373ffffffffffffffffffffffffffffffffffffffff1673ffffffffffffffffffffffffffffffffffffffff1681526020019081526020016000206000820160009054906101000a900473ffffffffffffffffffffffffffffffffffffffff168160000160006101000a81548173ffffffffffffffffffffffffffffffffffffffff021916908373ffffffffffffffffffffffffffffffffffffffff160217905550600182015481600101556002820154816002015560038201548160030155905050611903848285611f7b565b6119128684610120015161214f565b505050505050565b60008054906101000a900473ffffffffffffffffffffffffffffffffffffffff1673ffffffffffffffffffffffffffffffffffffffff163373ffffffffffffffffffffffffffffffffffffffff16146119a8576040517f08c379a000000000000000000000000000000000000000000000000000000000815260040161199f90612d30565b60405180910390fd5b808214156119eb576040517f08c379a00000000000000000000000000000000000000000000000000000000081526004016119e290612e30565b60405180910390fd5b7f9b8347db71866678626e61caf66375342fd141b0eb40341f6c039244cd43431d8183604051611a1c929190612f2b565b60405180910390a18190505050565b6000600660008481526020019081526020016000209050611a4a6124d9565b6000611a5534612034565b90508034611a6391906131a2565b82610100018181525050808260a001818152505082600601548461ffff16611a8b9190613148565b826000018181525050611aa38461ffff168484612073565b60006005600087815260200190815260200160002060003373ffffffffffffffffffffffffffffffffffffffff1673ffffffffffffffffffffffffffffffffffffffff168152602001908152602001600020905082600001518460020154611b0b919061308a565b8360e0018181525050611b1f848285611f7b565b611b2984846121a9565b84600601819055503373ffffffffffffffffffffffffffffffffffffffff16867f18330a03c53581893dee4197083e83a04dfe2824e8b3b98f5f3751f561a871328560a0015186606001518760400151604051611b8893929190612f54565b60405180910390a3505050505050565b600454831115611bdd576040517f08c379a0000000000000000000000000000000000000000000000000000000008152600401611bd490612d50565b60405180910390fd5b600354841115611c22576040517f08c379a0000000000000000000000000000000000000000000000000000000008152600401611c1990612e10565b60405180910390fd5b60008411611c65576040517f08c379a0000000000000000000000000000000000000000000000000000000008152600401611c5c90612ed0565b60405180910390fd5b6000821180611c745750600081115b611cb3576040517f08c379a0000000000000000000000000000000000000000000000000000000008152600401611caa90612e50565b60405180910390fd5b50505050565b338760000160006101000a81548173ffffffffffffffffffffffffffffffffffffffff021916908373ffffffffffffffffffffffffffffffffffffffff16021790555085876001018190555084876004018190555083876005018190555082876006018190555060008760020181905550818760070181905550808760080160006101000a81548160ff02191690836002811115611d80577f4e487b7100000000000000000000000000000000000000000000000000000000600052602160045260246000fd5b021790555050505050505050565b600060066000868152602001908152602001600020905080600401544211158015611dbd575080600501544210155b15611e12576064600260019054906101000a900460ff1660ff1685611de29190613148565b611dec9190613117565b84611df791906131a2565b8260c0018181525050611e0d8260c001516121f2565b611e5e565b6064600260009054906101000a900460ff1660ff1685611e329190613148565b611e3c9190613117565b84611e4791906131a2565b8260c0018181525050611e5d8260c001516121f2565b5b8160c001518160020154611e7291906131a2565b8260e0018181525050611e8581836121a9565b82608001818152505080600601548260c00151611ea29190613117565b836002016000828254611eb591906131a2565b925050819055508160e001518160020181905550816080015181600601819055503373ffffffffffffffffffffffffffffffffffffffff166108fc8360c001519081150290604051600060405180830381858888f19350505050158015611f20573d6000803e3d6000fd5b503373ffffffffffffffffffffffffffffffffffffffff16857f37e8063b72a944a76de602f32b82fd8c2a1c6f99564c727ffaf913c7762cd4208460c00151604051611f6c9190612f10565b60405180910390a35050505050565b611f85838261229d565b8060600151826002016000828254611f9d919061308a565b925050819055508060400151826003016000828254611fbc919061308a565b925050819055508060a00151826001016000828254611fdb919061308a565b92505081905550338260000160006101000a81548173ffffffffffffffffffffffffffffffffffffffff021916908373ffffffffffffffffffffffffffffffffffffffff16021790555061202f8382612398565b505050565b60006064600260009054906101000a900460ff1661205291906130e0565b60ff166064836120629190613148565b61206c9190613117565b9050919050565b8060a001518160000151116120d75780600001518160a0015161209691906131a2565b8160200181815250508160070154600182602001516120b5919061308a565b6120bf9190613117565b8160400181815250508281606001818152505061214a565b81600601548160a001516120eb9190613117565b816060018181525050816006015481606001516121089190613148565b8160a0015161211791906131a2565b816020018181525050816007015460018260200151612136919061308a565b6121409190613117565b8160400181815250505b505050565b600660008381526020019081526020016000206001015481106121a557817f4615bd5a2ca656ac950059df2c91c70e4cba47a5825a82f93bfa3ef447cc4eec8260405161219c9190612f10565b60405180910390a25b5050565b600082600101548260e00151146121e457826001015483600601548360e001516121d39190613148565b6121dd9190613117565b90506121ec565b826006015490505b92915050565b6002816121ff9190613117565b600760008060009054906101000a900473ffffffffffffffffffffffffffffffffffffffff1673ffffffffffffffffffffffffffffffffffffffff1673ffffffffffffffffffffffffffffffffffffffff168152602001908152602001600020600082825461226e919061308a565b925050819055506002816122829190613117565b60016000828254612293919061308a565b9250508190555050565b600281602001516122ae9190613117565b60028261010001516122c09190613117565b6122ca919061308a565b600760008460000160009054906101000a900473ffffffffffffffffffffffffffffffffffffffff1673ffffffffffffffffffffffffffffffffffffffff1673ffffffffffffffffffffffffffffffffffffffff168152602001908152602001600020600082825461233c919061308a565b925050819055506064601482602001516123569190613148565b6123609190613117565b60028261010001516123729190613117565b61237c919061308a565b6001600082825461238d919061308a565b925050819055505050565b6064600a82602001516123ab9190613148565b6123b59190613117565b81600001516123c4919061308a565b8260020160008282546123d7919061308a565b9250508190555080602001518260030160008282546123f6919061308a565b925050819055505050565b604051806101200160405280600073ffffffffffffffffffffffffffffffffffffffff1681526020016000815260200160008152602001600081526020016000815260200160008152602001600081526020016000815260200160006002811115612495577f4e487b7100000000000000000000000000000000000000000000000000000000600052602160045260246000fd5b81525090565b6040518060800160405280600073ffffffffffffffffffffffffffffffffffffffff1681526020016000815260200160008152602001600081525090565b604051806101400160405280600081526020016000815260200160008152602001600081526020016000815260200160008152602001600081526020016000815260200160008152602001600081525090565b60008135905061253b816136fc565b92915050565b60008135905061255081613713565b92915050565b60008135905061256581613723565b92915050565b60008135905061257a8161373a565b92915050565b60008135905061258f81613751565b92915050565b6000602082840312156125a757600080fd5b60006125b58482850161252c565b91505092915050565b6000602082840312156125d057600080fd5b60006125de8482850161256b565b91505092915050565b600080604083850312156125fa57600080fd5b60006126088582860161256b565b92505060206126198582860161252c565b9150509250929050565b6000806040838503121561263657600080fd5b60006126448582860161256b565b925050602061265585828601612556565b9150509250929050565b6000806040838503121561267257600080fd5b60006126808582860161256b565b92505060206126918582860161256b565b9150509250929050565b60008060008060008060c087890312156126b457600080fd5b60006126c289828a0161256b565b96505060206126d389828a0161256b565b95505060406126e489828a0161256b565b94505060606126f589828a0161256b565b935050608061270689828a0161256b565b92505060a061271789828a01612541565b9150509295509295509295565b60006020828403121561273657600080fd5b600061274484828501612580565b91505092915050565b60006127598383612aa6565b60808301905092915050565b60006127718383612afb565b6101208301905092915050565b612787816131d6565b82525050565b612796816131d6565b82525050565b60006127a782613027565b6127b18185613057565b93506127bc83613007565b8060005b838110156127ed5781516127d4888261274d565b97506127df8361303d565b9250506001810190506127c0565b5085935050505092915050565b600061280582613032565b61280f8185613068565b935061281a83613017565b8060005b8381101561284b5781516128328882612765565b975061283d8361304a565b92505060018101905061281e565b5085935050505092915050565b61286181613240565b82525050565b61287081613240565b82525050565b6000612883600e83613079565b915061288e82613328565b602082019050919050565b60006128a6602183613079565b91506128b182613351565b604082019050919050565b60006128c9602083613079565b91506128d4826133a0565b602082019050919050565b60006128ec601083613079565b91506128f7826133c9565b602082019050919050565b600061290f601e83613079565b915061291a826133f2565b602082019050919050565b6000612932601283613079565b915061293d8261341b565b602082019050919050565b6000612955602783613079565b915061296082613444565b604082019050919050565b6000612978602b83613079565b915061298382613493565b604082019050919050565b600061299b603383613079565b91506129a6826134e2565b604082019050919050565b60006129be603283613079565b91506129c982613531565b604082019050919050565b60006129e1603283613079565b91506129ec82613580565b604082019050919050565b6000612a04601783613079565b9150612a0f826135cf565b602082019050919050565b6000612a27601983613079565b9150612a32826135f8565b602082019050919050565b6000612a4a602083613079565b9150612a5582613621565b602082019050919050565b6000612a6d602483613079565b9150612a788261364a565b604082019050919050565b6000612a90602283613079565b9150612a9b82613699565b604082019050919050565b608082016000820151612abc600085018261277e565b506020820151612acf6020850182612bb2565b506040820151612ae26040850182612bb2565b506060820151612af56060850182612bb2565b50505050565b61012082016000820151612b12600085018261277e565b506020820151612b256020850182612bb2565b506040820151612b386040850182612bb2565b506060820151612b4b6060850182612bb2565b506080820151612b5e6080850182612bb2565b5060a0820151612b7160a0850182612bb2565b5060c0820151612b8460c0850182612bb2565b5060e0820151612b9760e0850182612bb2565b50610100820151612bac610100850182612858565b50505050565b612bbb81613229565b82525050565b612bca81613229565b82525050565b612bd981613233565b82525050565b6000602082019050612bf4600083018461278d565b92915050565b6000608082019050612c0f600083018761278d565b612c1c6020830186612bc1565b612c296040830185612bc1565b612c366060830184612bc1565b95945050505050565b600061012082019050612c55600083018c61278d565b612c62602083018b612bc1565b612c6f604083018a612bc1565b612c7c6060830189612bc1565b612c896080830188612bc1565b612c9660a0830187612bc1565b612ca360c0830186612bc1565b612cb060e0830185612bc1565b612cbe610100830184612867565b9a9950505050505050505050565b60006020820190508181036000830152612ce6818461279c565b905092915050565b60006020820190508181036000830152612d0881846127fa565b905092915050565b60006020820190508181036000830152612d2981612876565b9050919050565b60006020820190508181036000830152612d4981612899565b9050919050565b60006020820190508181036000830152612d69816128bc565b9050919050565b60006020820190508181036000830152612d89816128df565b9050919050565b60006020820190508181036000830152612da981612902565b9050919050565b60006020820190508181036000830152612dc981612925565b9050919050565b60006020820190508181036000830152612de981612948565b9050919050565b60006020820190508181036000830152612e098161296b565b9050919050565b60006020820190508181036000830152612e298161298e565b9050919050565b60006020820190508181036000830152612e49816129b1565b9050919050565b60006020820190508181036000830152612e69816129d4565b9050919050565b60006020820190508181036000830152612e89816129f7565b9050919050565b60006020820190508181036000830152612ea981612a1a565b9050919050565b60006020820190508181036000830152612ec981612a3d565b9050919050565b60006020820190508181036000830152612ee981612a60565b9050919050565b60006020820190508181036000830152612f0981612a83565b9050919050565b6000602082019050612f256000830184612bc1565b92915050565b6000604082019050612f406000830185612bc1565b612f4d6020830184612bc1565b9392505050565b6000606082019050612f696000830186612bc1565b612f766020830185612bc1565b612f836040830184612bc1565b949350505050565b600060c082019050612fa06000830189612bc1565b612fad6020830188612bc1565b612fba6040830187612bc1565b612fc76060830186612bc1565b612fd46080830185612bc1565b612fe160a0830184612867565b979650505050505050565b60006020820190506130016000830184612bd0565b92915050565b6000819050602082019050919050565b6000819050602082019050919050565b600081519050919050565b600081519050919050565b6000602082019050919050565b6000602082019050919050565b600082825260208201905092915050565b600082825260208201905092915050565b600082825260208201905092915050565b600061309582613229565b91506130a083613229565b9250827fffffffffffffffffffffffffffffffffffffffffffffffffffffffffffffffff038211156130d5576130d461329b565b5b828201905092915050565b60006130eb82613233565b91506130f683613233565b92508260ff0382111561310c5761310b61329b565b5b828201905092915050565b600061312282613229565b915061312d83613229565b92508261313d5761313c6132ca565b5b828204905092915050565b600061315382613229565b915061315e83613229565b9250817fffffffffffffffffffffffffffffffffffffffffffffffffffffffffffffffff04831182151516156131975761319661329b565b5b828202905092915050565b60006131ad82613229565b91506131b883613229565b9250828210156131cb576131ca61329b565b5b828203905092915050565b60006131e182613209565b9050919050565b60008190506131f6826136e8565b919050565b600061ffff82169050919050565b600073ffffffffffffffffffffffffffffffffffffffff82169050919050565b6000819050919050565b600060ff82169050919050565b600061324b826131e8565b9050919050565b600061325d82613229565b91507fffffffffffffffffffffffffffffffffffffffffffffffffffffffffffffffff8214156132905761328f61329b565b5b600182019050919050565b7f4e487b7100000000000000000000000000000000000000000000000000000000600052601160045260246000fd5b7f4e487b7100000000000000000000000000000000000000000000000000000000600052601260045260246000fd5b7f4e487b7100000000000000000000000000000000000000000000000000000000600052602160045260246000fd5b7f53616c6520697320636c6f736564000000000000000000000000000000000000600082015250565b7f4f6e6c79206f776e65722063616e2063616c6c20746869732066756e6374696f60008201527f6e00000000000000000000000000000000000000000000000000000000000000602082015250565b7f4475726174696f6e2065786365656473206d6178696d756d20616c6c6f776564600082015250565b7f496e76616c6964206475726174696f6e00000000000000000000000000000000600082015250565b7f53616c65732068617665207265616368656420697473207461726765742e0000600082015250565b7f53616c65206973206e6f74206163746976650000000000000000000000000000600082015250565b7f507572636861736520616d6f756e74206d75737420626520677265617465722060008201527f7468616e20302e00000000000000000000000000000000000000000000000000602082015250565b7f436f6e747269627574696f6e20616d6f756e74206d757374206265206772656160008201527f746572207468616e20302e000000000000000000000000000000000000000000602082015250565b7f54617267657420616d6f756e742065786365656473206d6178696d756d20636f60008201527f6e747269627574696f6e207065722073616c6500000000000000000000000000602082015250565b7f4e65772076616c7565206d75737420626520646966666572656e742066726f6d60008201527f207468652063757272656e742076616c75650000000000000000000000000000602082015250565b7f5368617265206f7220537562736372697074696f6e207072696365206d75737460008201527f2062652067726561746572207468616e20300000000000000000000000000000602082015250565b7f53616c65206973206e6f742079657420636c6f7365642e000000000000000000600082015250565b7f496e76616c6964206e6577206f776e6572206164647265737300000000000000600082015250565b7f53616c65206973207374696c6c2072756e6e696e67206f72206163746976652e600082015250565b7f54617267657420616d6f756e74206d757374206265206772656174657220746860008201527f616e203000000000000000000000000000000000000000000000000000000000602082015250565b7f496e73756666696369656e742073686172657320666f7220776974686472617760008201527f616c000000000000000000000000000000000000000000000000000000000000602082015250565b600381106136f9576136f86132f9565b5b50565b613705816131d6565b811461371057600080fd5b50565b6003811061372057600080fd5b50565b61372c816131fb565b811461373757600080fd5b50565b61374381613229565b811461374e57600080fd5b50565b61375a81613233565b811461376557600080fd5b5056fea26469706673582212200870d9628d0551eaa95d8afef7eacec2d94c066008d87e54b4d61592a5c7a5b964736f6c63430008040033",
  "immutableReferences": {},
  "source": "// SPDX-License-Identifier: MIT\npragma solidity >=0.4.22 <0.9.0;\n\ncontract XviralShares {\n    address public owner;\n    uint256 public totalFeesRaised;\n    uint8 public ownerFeePercentage = 5;\n    uint8 public withdrawalFee = 10;\n    uint256 public maxContribution = 400 ether;\n    uint256 public maxDuration = 7 days;\n\n    enum SaleType {Shares, Subscription, Both}\n\n    enum ChangeType {OwnerFee, WithdrawalFee}\n\n    struct Sale {\n        address creator;\n        uint256 targetAmount;\n        uint256 totalSharesRaised;\n        uint256 totalSubscriptionRaised;\n        uint256 startTime;\n        uint256 endTime;\n        uint256 sharePrice;\n        uint256 subscriptionPrice;\n        SaleType saleType;\n    }\n\n    struct Contribution {\n        address contributor;\n        uint256 amount;\n        uint256 shares;\n        uint256 subscriptions;\n    }\n\n    struct TempVars{\n        uint256 shareAmount;\n        uint256 subscriptionAmount;\n        uint256 subscriptions;\n        uint256 shares;\n        uint256 newSharePrice;\n        uint256 avlAmount;\n        uint256 withdrawalAmount;\n        uint256 newTotalSharesRaised;\n        uint256 fees;\n        uint256 totalRaised;\n    }\n\n    mapping(uint256 => mapping(address => Contribution)) public saleContributions;\n\n    mapping(uint256 => Sale) public sales;\n\n    mapping(address => uint256) public balances;\n\n    uint256 public saleCounter;\n\n    event SaleCreated(\n        uint256 indexed saleId,\n        address indexed creator,\n        uint256 targetAmount,\n        uint256 startTime,\n        uint256 endTime,\n        uint256 sharePrice,\n        uint256 subscriptionPrice,\n        SaleType saleType\n    );\n\n    event ContributionAdded(\n        uint256 indexed saleId,\n        address indexed contributor,\n        uint256 amount,\n        uint256 shares,\n        uint256 subscriptions\n    );\n\n    event SaleClosed(uint256 indexed saleId, uint256 totalSharesRaised);\n\n    event Withdrawal(uint256 indexed saleId, address indexed contributor, uint256 amount);\n\n    event SaleCanceled(uint256 indexed saleId);\n\n    event OwnershipTransferred(address indexed previousOwner, address indexed newOwner);\n\n    event FeesChanged(uint8 previousFee, uint8 indexed newFee);\n\n    event MaxValueChanged(uint256 previousDuration, uint256 newDuration);\n\n    modifier onlyOwner() {\n        require(msg.sender == owner, \"Only owner can call this function\");\n        _;\n    }\n\n    modifier onlyCreator(uint256 _saleId) {\n        require(msg.sender == sales[_saleId].creator, \"Only sale creator can call this function\");\n        _;\n    }\n\n    modifier saleActive(uint256 _saleId) {\n        require(block.timestamp >= sales[_saleId].startTime && block.timestamp <= sales[_saleId].endTime, \"Sale is not active\");\n        _;\n    }\n\n    modifier saleNotClosed(uint256 _saleId) {\n        require(block.timestamp <= sales[_saleId].endTime, \"Sale is closed\");\n        _;\n    }\n\n    constructor() {\n        owner = msg.sender;\n    }\n    \n    function createSale(\n        uint256 _targetAmount,\n        uint256 _duration,\n        uint256 _startTime,\n        uint256 _sharePrice,\n        uint256 _subscriptionPrice,\n        SaleType _saleType\n    ) external {\n        _validateSaleParameters(_targetAmount, _duration, _sharePrice, _subscriptionPrice);\n\n        uint256 endTime = _startTime + _duration;\n        require(endTime <= _startTime + maxDuration, \"Invalid duration\");\n\n        saleCounter++;\n\n        Sale storage newSale = sales[saleCounter];\n        _initializeSale(newSale, _targetAmount, _startTime, endTime, _sharePrice, _subscriptionPrice, _saleType);\n\n        emit SaleCreated(saleCounter, msg.sender, _targetAmount, _startTime, endTime, _sharePrice, _subscriptionPrice, _saleType);\n    }\n\n    // Function to contribute to a sale\n    function contribute(uint256 _saleId, uint16 _shareValue) external payable saleActive(_saleId) saleNotClosed(_saleId) {\n        Sale storage sale = sales[_saleId];\n        require(msg.value > 0, \"Contribution amount must be greater than 0.\");\n        require(sale.totalSharesRaised + sale.totalSubscriptionRaised + msg.value < sale.targetAmount, \"Sales have reached its target.\");\n\n        _processContribution(_saleId, _shareValue);\n    }\n\n    // Function to purchase shares after a sale has ended\n    function purchase(uint256 _saleId, uint16 _shareValue) external payable {\n        Sale storage sale = sales[_saleId];\n        require(msg.value > 0, \"Purchase amount must be greater than 0.\");\n        require(block.timestamp <= sale.startTime && block.timestamp >= sale.endTime, \"Sale is still running or active.\");\n        require(block.timestamp >= sale.endTime, \"Sale is not yet closed.\");\n\n        _processPurchase(_saleId, _shareValue);\n    }\n\n    // Function to withdraw shares\n    function withdrawShares(uint256 _saleId, uint256 _numShares) external {\n        Contribution storage contribution = saleContributions[_saleId][msg.sender];\n        require(contribution.shares > 0 && _numShares <= contribution.shares, \"Insufficient shares for withdrawal\");\n\n        _processWithdrawal(_saleId, _numShares, contribution);\n    }\n\n    function getCreatorBalance() external view returns(uint256){\n        return balances[msg.sender];\n    }\n\n\n    // Function to transfer ownership\n    function transferOwnership(address _newOwner) external onlyOwner {\n        require(_newOwner != address(0), \"Invalid new owner address\");\n        emit OwnershipTransferred(owner, _newOwner);\n        owner = payable(_newOwner);\n    }\n\n    // Function to change the withdrawal fee\n    function changeWithdrawalFee(uint8 value) external onlyOwner {\n        _changeFee(value, withdrawalFee);\n        withdrawalFee = value;\n    }\n\n    // Function to change the owner fee\n    function changeOwnerFee(uint8 value) external onlyOwner {\n        _changeFee(value, ownerFeePercentage);\n        ownerFeePercentage = value;\n    }\n\n    // Function to change the max duration\n    function changeMaxDuration(uint256 duration) external onlyOwner {\n        _changeMaxParameter(duration, maxDuration);\n        maxDuration = duration;\n    }\n\n    // Function to change the max contribution\n    function changeMaxContribution(uint256 contribution) external onlyOwner {\n        _changeMaxParameter(contribution, maxContribution);\n        maxContribution = contribution;\n    }\n\n    // Internal function to change a fee parameter (withdrawalFee or ownerFeePercentage)\n    function _changeFee(uint8 newValue, uint8 currentFee) internal onlyOwner {\n        require(newValue != currentFee, \"New value must be different from the current value\");\n        emit FeesChanged(currentFee, newValue);\n        currentFee = newValue;\n    }\n\n    // Internal function to change a max parameter (maxDuration or maxContribution)\n    function _changeMaxParameter(uint256 newValue, uint256 currentMax) internal onlyOwner {\n        require(newValue != currentMax, \"New value must be different from the current value\");\n        emit MaxValueChanged(currentMax, newValue);\n        currentMax = newValue;\n    }\n\n    // Internal function to validate sale parameters\n    function _validateSaleParameters(uint256 _targetAmount, uint256 _duration, uint256 _sharePrice, uint256 _subscriptionPrice) internal view {\n        require(_duration <= maxDuration, \"Duration exceeds maximum allowed\");\n        require(_targetAmount <= maxContribution, \"Target amount exceeds maximum contribution per sale\");\n        require(_targetAmount > 0, \"Target amount must be greater than 0\");\n        require(_sharePrice > 0 || _subscriptionPrice > 0, \"Share or Subscription price must be greater than 0\");\n    }\n\n    // Internal function to initialize a new sale\n    function _initializeSale(\n        Sale storage _sale,\n        uint256 _targetAmount,\n        uint256 _startTime,\n        uint256 _endTime,\n        uint256 _sharePrice,\n        uint256 _subscriptionPrice,\n        SaleType _saleType\n    ) internal {\n        _sale.creator = msg.sender;\n        _sale.targetAmount = _targetAmount;\n        _sale.startTime = _startTime;\n        _sale.endTime = _endTime;\n        _sale.sharePrice = _sharePrice;\n        _sale.totalSharesRaised = 0;\n        _sale.subscriptionPrice = _subscriptionPrice;\n        _sale.saleType = _saleType;\n    }\n\n    // Internal function to process a contribution\n    function _processContribution(uint256 _saleId, uint256 _shareValue) internal {\n        Sale storage sale = sales[_saleId];\n        TempVars memory tempVars;\n        uint256 actualContribution = _calculateActualContribution(msg.value);\n        tempVars.fees = msg.value - actualContribution;\n        tempVars.avlAmount = actualContribution;\n        tempVars.shareAmount = _shareValue * sale.sharePrice;\n\n        _calculateContributionAmounts(_shareValue, sale, tempVars);\n\n        Contribution storage contribution = saleContributions[_saleId][msg.sender];\n\n        saleContributions[_saleId][msg.sender] = contribution;\n        \n        _updateBalancesAndTotals(sale, contribution, tempVars);\n\n        _checkSaleClosed(_saleId, tempVars.totalRaised);\n    }\n\n    // Internal function to process a purchase\n    function _processPurchase(uint256 _saleId, uint16 _shareValue) internal {\n        Sale storage sale = sales[_saleId];\n        TempVars memory tempVars;\n        uint256 actualContribution = _calculateActualContribution(msg.value);\n        tempVars.fees = msg.value - actualContribution;\n        tempVars.avlAmount = actualContribution;\n        tempVars.shareAmount = _shareValue * sale.sharePrice;\n        \n        _calculateContributionAmounts(_shareValue, sale, tempVars);\n\n        Contribution storage contribution = saleContributions[_saleId][msg.sender];\n\n        tempVars.newTotalSharesRaised = sale.totalSharesRaised + tempVars.shareAmount;\n\n        _updateBalancesAndTotals(sale, contribution, tempVars);\n\n        sale.sharePrice = _calculateNewSharePrice(sale, tempVars);\n\n        emit ContributionAdded(_saleId, msg.sender, tempVars.avlAmount, tempVars.shares, tempVars.subscriptions);\n    }\n\n    // Internal function to process a withdrawal\n    function _processWithdrawal(uint256 _saleId, uint256 _numShares, Contribution storage _contribution) internal {\n        Sale storage sale = sales[_saleId];\n        TempVars memory tempVars;\n        uint256 totalAmount = _numShares * sale.sharePrice;\n\n        _calculateWithdrawalAmount(_saleId, totalAmount, _contribution, tempVars);\n        \n        _updateBalancesAndTotals(sale, _contribution, tempVars);\n\n        emit Withdrawal(_saleId, msg.sender, tempVars.withdrawalAmount);\n    }\n\n    // Internal function to calculate actual contribution after fees\n    function _calculateActualContribution(uint256 _contribution) internal view returns (uint256) {\n        return (_contribution * 100) / (ownerFeePercentage + 100);\n    }\n\n    // Internal function to calculate various contribution amounts\n    function _calculateContributionAmounts(uint256 _shareValue, Sale storage _sale, TempVars memory _tempVars) internal view {\n        if (_tempVars.shareAmount <= _tempVars.avlAmount) {\n            _tempVars.subscriptionAmount = _tempVars.avlAmount - _tempVars.shareAmount;\n            _tempVars.subscriptions = (_tempVars.subscriptionAmount + 1) / _sale.subscriptionPrice;\n            _tempVars.shares = _shareValue;\n        } else {\n            _tempVars.shares = _tempVars.avlAmount / _sale.sharePrice;\n            _tempVars.subscriptionAmount = _tempVars.avlAmount - (_tempVars.shares * _sale.sharePrice);\n            _tempVars.subscriptions = (_tempVars.subscriptionAmount + 1) / _sale.subscriptionPrice;\n        }\n    }\n\n    // Internal function to update balances and totals\n    function _updateBalancesAndTotals(Sale storage _sale, Contribution storage _contribution, TempVars memory _tempVars) internal {\n        _updateFeesAndBalances(_sale, _tempVars);\n        \n        _contribution.shares += _tempVars.shares;\n        _contribution.subscriptions += _tempVars.subscriptions;\n        _contribution.amount += _tempVars.avlAmount;\n        _contribution.contributor = msg.sender;\n\n        _updateSaleTotals(_sale, _tempVars);\n    }\n\n    // Internal function to update fees and balances\n    function _updateFeesAndBalances(Sale storage _sale,TempVars memory _tempVars) internal {\n        balances[_sale.creator] += (_tempVars.fees / 2) + (_tempVars.subscriptionAmount / 2);\n        totalFeesRaised += (_tempVars.fees / 2) + (_tempVars.subscriptionAmount * 20 / 100);\n    }\n\n    // Internal function to update sale totals\n    function _updateSaleTotals(Sale storage _sale, TempVars memory _tempVars) internal {\n        _sale.totalSharesRaised += _tempVars.shareAmount + (_tempVars.subscriptionAmount * 10 / 100);\n        _sale.totalSubscriptionRaised += _tempVars.subscriptionAmount;\n    }\n\n    // Internal function to calculate a new share price after a purchase\n    function _calculateNewSharePrice(Sale storage _sale, TempVars memory _tempVars) internal view returns (uint256) {\n        if (_tempVars.newTotalSharesRaised != _sale.targetAmount) {\n            return (_tempVars.newTotalSharesRaised * _sale.sharePrice) / _sale.targetAmount;\n        } else {\n            return _sale.sharePrice;\n        }\n    }\n\n    // Internal function to check if a sale is closed\n    function _checkSaleClosed(uint256 _saleId, uint256 _totalRaised) internal {\n        if (_totalRaised >= sales[_saleId].targetAmount) {\n            emit SaleClosed(_saleId, _totalRaised);\n        }\n    }\n\n    // Internal function to calculate withdrawal amount\n    function _calculateWithdrawalAmount(uint256 _saleId, uint256 _totalAmount, Contribution storage _contribution, TempVars memory _tempVars) internal {\n        Sale storage sale = sales[_saleId];\n\n        if (block.timestamp <= sale.startTime && block.timestamp >= sale.endTime) {\n            _tempVars.withdrawalAmount = _totalAmount - (_totalAmount * withdrawalFee) / 100;\n            _updateOwnerFees(_tempVars.withdrawalAmount);\n        } else {\n            _tempVars.withdrawalAmount = _totalAmount - (_totalAmount * ownerFeePercentage) / 100;\n            _updateOwnerFees(_tempVars.withdrawalAmount);\n        }\n\n        _tempVars.newTotalSharesRaised = sale.totalSharesRaised - _tempVars.withdrawalAmount;\n        _tempVars.newSharePrice = _calculateNewSharePrice(sale, _tempVars);\n\n        _contribution.shares -= _tempVars.withdrawalAmount / sale.sharePrice;\n        sale.totalSharesRaised = _tempVars.newTotalSharesRaised;\n        sale.sharePrice = _tempVars.newSharePrice;\n\n        payable(msg.sender).transfer(_tempVars.withdrawalAmount);\n        emit Withdrawal(_saleId, msg.sender, _tempVars.withdrawalAmount);\n    }\n\n    // Internal function to update owner fees\n    function _updateOwnerFees(uint256 _feeAmount) internal {\n        balances[owner] += _feeAmount / 2;\n        totalFeesRaised += _feeAmount / 2;\n    }\n\n    function getSaleDetails(uint256 _saleId)\n        external\n        view\n        returns (\n            address creator,\n            uint256 targetAmount,\n            uint256 startTime,\n            uint256 endTime,\n            uint256 sharePrice,\n            uint256 subscriptionPrice,\n            uint256 totalSharesRaised,\n            uint256 totalSubscriptionRaised,\n            SaleType saleType\n        )\n    {\n        Sale storage sale = sales[_saleId];\n        return (\n            sale.creator,\n            sale.targetAmount,\n            sale.startTime,\n            sale.endTime,\n            sale.sharePrice,\n            sale.subscriptionPrice,\n            sale.totalSharesRaised,\n            sale.totalSubscriptionRaised,\n            sale.saleType\n        );\n    }\n\n    function getContributionsByUser(uint256 _saleId, address _user)\n        external\n        view\n        returns (Contribution[] memory userContributions)\n    {\n        uint256 contributionCount = 0;\n\n        for (uint256 i = 1; i <= saleCounter; i++) {\n            if (saleContributions[_saleId][_user].amount > 0) {\n                contributionCount++;\n            }\n        }\n\n        userContributions = new Contribution[](contributionCount);\n        contributionCount = 0;\n\n        for (uint256 i = 1; i <= saleCounter; i++) {\n            if (saleContributions[_saleId][_user].amount > 0) {\n                userContributions[contributionCount] = saleContributions[_saleId][_user];\n                contributionCount++;\n            }\n        }\n\n        return userContributions;\n    }\n\n    function getAllSales() external view returns (Sale[] memory) {\n        Sale[] memory allSales = new Sale[](saleCounter);\n\n        for (uint256 i = 1; i <= saleCounter; i++) {\n            allSales[i - 1] = sales[i];\n        }\n\n        return allSales;\n    }\n    \n}\n",
  "sourcePath": "/Users/blanksonr/development/betticos-backend/contracts/XviralShares.sol",
  "compiler": {
    "name": "solc",
    "version": "0.8.4+commit.c7e474f2.Emscripten.clang"
  },
  "schemaVersion": "3.4.16",
  "updatedAt": "2023-12-12T12:59:39.072Z",
  "networkType": "ethereum",
  "devdoc": {
    "kind": "dev",
    "methods": {},
    "version": 1
  },
  "userdoc": {
    "kind": "user",
    "methods": {},
    "version": 1
  }
}